:1000000019C028C027C026C026C024C023C022C0D3
:1000100021C020C01FC01EC01DC01CC058C01AC0B7
:1000200019C018C017C016C015C014C013C012C024
:1000300011C010C011241FBECFEFD4E0DEBFCDBF72
:1000400011E0A0E0B1E001C01D92A230B107E1F7DC
:100050006CD084C0D5CF1F920F920FB60F9211248F
:100060008F939F938091B100811113C086B190E06E
:1000700080959095689413F8959587951694E1F777
:1000800083709927019729F482E08093B10083E07F
:1000900085BD8091B100811113C086B190E080953B
:1000A0009095689413F8959587951694E1F7837069
:1000B0009927029729F485E08093B10083E085BDFC
:1000C0009F918F910F900FBE0F901F9018951F92C8
:1000D0000F920FB60F9211242F938F939F938091BD
:1000E000000190910101843F21E0920761F4109298
:1000F000B10015BC16BC8EEE8093B30010920101C6
:10010000109200010AC02091B30021502093B30047
:10011000019690930101809300019F918F912F91FF
:100120000F900FBE0F901F90189588E08AB917B8EE
:1001300090E398B982E18093B00089EF87BD22E017
:1001400024BD15BC80916E00826080936E00209368
:10015000680090936C007894A895FECFF894FFCF38
:00000001FF
